{
  "contractName": "SolnSquareVerifier",
  "abi": [
    {
      "anonymous": false,
      "inputs": [
        {
          "indexed": true,
          "internalType": "address",
          "name": "owner",
          "type": "address"
        },
        {
          "indexed": true,
          "internalType": "address",
          "name": "approved",
          "type": "address"
        },
        {
          "indexed": true,
          "internalType": "uint256",
          "name": "tokenId",
          "type": "uint256"
        }
      ],
      "name": "Approval",
      "type": "event"
    },
    {
      "anonymous": false,
      "inputs": [
        {
          "indexed": true,
          "internalType": "address",
          "name": "owner",
          "type": "address"
        },
        {
          "indexed": true,
          "internalType": "address",
          "name": "operator",
          "type": "address"
        },
        {
          "indexed": false,
          "internalType": "bool",
          "name": "approved",
          "type": "bool"
        }
      ],
      "name": "ApprovalForAll",
      "type": "event"
    },
    {
      "anonymous": false,
      "inputs": [
        {
          "indexed": true,
          "internalType": "address",
          "name": "oldOwner",
          "type": "address"
        },
        {
          "indexed": true,
          "internalType": "address",
          "name": "newOwner",
          "type": "address"
        }
      ],
      "name": "OwnershipTransfered",
      "type": "event"
    },
    {
      "anonymous": false,
      "inputs": [
        {
          "indexed": true,
          "internalType": "address",
          "name": "pauser",
          "type": "address"
        }
      ],
      "name": "Paused",
      "type": "event"
    },
    {
      "anonymous": false,
      "inputs": [
        {
          "indexed": false,
          "internalType": "uint256",
          "name": "index",
          "type": "uint256"
        },
        {
          "indexed": false,
          "internalType": "address",
          "name": "addr",
          "type": "address"
        }
      ],
      "name": "SolutionAdded",
      "type": "event"
    },
    {
      "anonymous": false,
      "inputs": [
        {
          "indexed": true,
          "internalType": "address",
          "name": "from",
          "type": "address"
        },
        {
          "indexed": true,
          "internalType": "address",
          "name": "to",
          "type": "address"
        },
        {
          "indexed": true,
          "internalType": "uint256",
          "name": "tokenId",
          "type": "uint256"
        }
      ],
      "name": "Transfer",
      "type": "event"
    },
    {
      "anonymous": false,
      "inputs": [
        {
          "indexed": true,
          "internalType": "address",
          "name": "unpauser",
          "type": "address"
        }
      ],
      "name": "Unpaused",
      "type": "event"
    },
    {
      "anonymous": false,
      "inputs": [
        {
          "indexed": false,
          "internalType": "string",
          "name": "s",
          "type": "string"
        }
      ],
      "name": "Verified",
      "type": "event"
    },
    {
      "constant": false,
      "inputs": [
        {
          "internalType": "bytes32",
          "name": "_myid",
          "type": "bytes32"
        },
        {
          "internalType": "string",
          "name": "_result",
          "type": "string"
        }
      ],
      "name": "__callback",
      "outputs": [],
      "payable": false,
      "stateMutability": "nonpayable",
      "type": "function"
    },
    {
      "constant": false,
      "inputs": [
        {
          "internalType": "bytes32",
          "name": "_myid",
          "type": "bytes32"
        },
        {
          "internalType": "string",
          "name": "_result",
          "type": "string"
        },
        {
          "internalType": "bytes",
          "name": "_proof",
          "type": "bytes"
        }
      ],
      "name": "__callback",
      "outputs": [],
      "payable": false,
      "stateMutability": "nonpayable",
      "type": "function"
    },
    {
      "constant": false,
      "inputs": [
        {
          "internalType": "address",
          "name": "to",
          "type": "address"
        },
        {
          "internalType": "uint256",
          "name": "tokenId",
          "type": "uint256"
        }
      ],
      "name": "approve",
      "outputs": [],
      "payable": false,
      "stateMutability": "nonpayable",
      "type": "function"
    },
    {
      "constant": true,
      "inputs": [
        {
          "internalType": "address",
          "name": "owner",
          "type": "address"
        }
      ],
      "name": "balanceOf",
      "outputs": [
        {
          "internalType": "uint256",
          "name": "",
          "type": "uint256"
        }
      ],
      "payable": false,
      "stateMutability": "view",
      "type": "function"
    },
    {
      "constant": true,
      "inputs": [],
      "name": "baseTokenURI",
      "outputs": [
        {
          "internalType": "string",
          "name": "",
          "type": "string"
        }
      ],
      "payable": false,
      "stateMutability": "view",
      "type": "function"
    },
    {
      "constant": true,
      "inputs": [],
      "name": "currentOwner",
      "outputs": [
        {
          "internalType": "address",
          "name": "",
          "type": "address"
        }
      ],
      "payable": false,
      "stateMutability": "view",
      "type": "function"
    },
    {
      "constant": true,
      "inputs": [
        {
          "internalType": "uint256",
          "name": "tokenId",
          "type": "uint256"
        }
      ],
      "name": "getApproved",
      "outputs": [
        {
          "internalType": "address",
          "name": "",
          "type": "address"
        }
      ],
      "payable": false,
      "stateMutability": "view",
      "type": "function"
    },
    {
      "constant": true,
      "inputs": [
        {
          "internalType": "address",
          "name": "owner",
          "type": "address"
        },
        {
          "internalType": "address",
          "name": "operator",
          "type": "address"
        }
      ],
      "name": "isApprovedForAll",
      "outputs": [
        {
          "internalType": "bool",
          "name": "",
          "type": "bool"
        }
      ],
      "payable": false,
      "stateMutability": "view",
      "type": "function"
    },
    {
      "constant": true,
      "inputs": [],
      "name": "name",
      "outputs": [
        {
          "internalType": "string",
          "name": "",
          "type": "string"
        }
      ],
      "payable": false,
      "stateMutability": "view",
      "type": "function"
    },
    {
      "constant": true,
      "inputs": [
        {
          "internalType": "uint256",
          "name": "tokenId",
          "type": "uint256"
        }
      ],
      "name": "ownerOf",
      "outputs": [
        {
          "internalType": "address",
          "name": "",
          "type": "address"
        }
      ],
      "payable": false,
      "stateMutability": "view",
      "type": "function"
    },
    {
      "constant": false,
      "inputs": [
        {
          "internalType": "address",
          "name": "from",
          "type": "address"
        },
        {
          "internalType": "address",
          "name": "to",
          "type": "address"
        },
        {
          "internalType": "uint256",
          "name": "tokenId",
          "type": "uint256"
        }
      ],
      "name": "safeTransferFrom",
      "outputs": [],
      "payable": false,
      "stateMutability": "nonpayable",
      "type": "function"
    },
    {
      "constant": false,
      "inputs": [
        {
          "internalType": "address",
          "name": "from",
          "type": "address"
        },
        {
          "internalType": "address",
          "name": "to",
          "type": "address"
        },
        {
          "internalType": "uint256",
          "name": "tokenId",
          "type": "uint256"
        },
        {
          "internalType": "bytes",
          "name": "_data",
          "type": "bytes"
        }
      ],
      "name": "safeTransferFrom",
      "outputs": [],
      "payable": false,
      "stateMutability": "nonpayable",
      "type": "function"
    },
    {
      "constant": false,
      "inputs": [
        {
          "internalType": "address",
          "name": "to",
          "type": "address"
        },
        {
          "internalType": "bool",
          "name": "approved",
          "type": "bool"
        }
      ],
      "name": "setApprovalForAll",
      "outputs": [],
      "payable": false,
      "stateMutability": "nonpayable",
      "type": "function"
    },
    {
      "constant": false,
      "inputs": [
        {
          "internalType": "bool",
          "name": "state",
          "type": "bool"
        }
      ],
      "name": "setState",
      "outputs": [],
      "payable": false,
      "stateMutability": "nonpayable",
      "type": "function"
    },
    {
      "constant": true,
      "inputs": [
        {
          "internalType": "bytes4",
          "name": "interfaceId",
          "type": "bytes4"
        }
      ],
      "name": "supportsInterface",
      "outputs": [
        {
          "internalType": "bool",
          "name": "",
          "type": "bool"
        }
      ],
      "payable": false,
      "stateMutability": "view",
      "type": "function"
    },
    {
      "constant": true,
      "inputs": [],
      "name": "symbol",
      "outputs": [
        {
          "internalType": "string",
          "name": "",
          "type": "string"
        }
      ],
      "payable": false,
      "stateMutability": "view",
      "type": "function"
    },
    {
      "constant": true,
      "inputs": [
        {
          "internalType": "uint256",
          "name": "index",
          "type": "uint256"
        }
      ],
      "name": "tokenByIndex",
      "outputs": [
        {
          "internalType": "uint256",
          "name": "",
          "type": "uint256"
        }
      ],
      "payable": false,
      "stateMutability": "view",
      "type": "function"
    },
    {
      "constant": true,
      "inputs": [
        {
          "internalType": "address",
          "name": "owner",
          "type": "address"
        },
        {
          "internalType": "uint256",
          "name": "index",
          "type": "uint256"
        }
      ],
      "name": "tokenOfOwnerByIndex",
      "outputs": [
        {
          "internalType": "uint256",
          "name": "",
          "type": "uint256"
        }
      ],
      "payable": false,
      "stateMutability": "view",
      "type": "function"
    },
    {
      "constant": true,
      "inputs": [
        {
          "internalType": "uint256",
          "name": "tokenId",
          "type": "uint256"
        }
      ],
      "name": "tokenURI",
      "outputs": [
        {
          "internalType": "string",
          "name": "",
          "type": "string"
        }
      ],
      "payable": false,
      "stateMutability": "view",
      "type": "function"
    },
    {
      "constant": true,
      "inputs": [],
      "name": "totalSupply",
      "outputs": [
        {
          "internalType": "uint256",
          "name": "",
          "type": "uint256"
        }
      ],
      "payable": false,
      "stateMutability": "view",
      "type": "function"
    },
    {
      "constant": false,
      "inputs": [
        {
          "internalType": "address",
          "name": "from",
          "type": "address"
        },
        {
          "internalType": "address",
          "name": "to",
          "type": "address"
        },
        {
          "internalType": "uint256",
          "name": "tokenId",
          "type": "uint256"
        }
      ],
      "name": "transferFrom",
      "outputs": [],
      "payable": false,
      "stateMutability": "nonpayable",
      "type": "function"
    },
    {
      "constant": false,
      "inputs": [
        {
          "internalType": "address",
          "name": "newOwner",
          "type": "address"
        }
      ],
      "name": "transferOwnership",
      "outputs": [],
      "payable": false,
      "stateMutability": "nonpayable",
      "type": "function"
    },
    {
      "constant": false,
      "inputs": [
        {
          "internalType": "uint256[2]",
          "name": "a",
          "type": "uint256[2]"
        },
        {
          "internalType": "uint256[2][2]",
          "name": "b",
          "type": "uint256[2][2]"
        },
        {
          "internalType": "uint256[2]",
          "name": "c",
          "type": "uint256[2]"
        },
        {
          "internalType": "uint256[2]",
          "name": "input",
          "type": "uint256[2]"
        }
      ],
      "name": "verifyTx",
      "outputs": [
        {
          "internalType": "bool",
          "name": "r",
          "type": "bool"
        }
      ],
      "payable": false,
      "stateMutability": "nonpayable",
      "type": "function"
    },
    {
      "constant": false,
      "inputs": [
        {
          "internalType": "address",
          "name": "_addr",
          "type": "address"
        },
        {
          "internalType": "uint256",
          "name": "_index",
          "type": "uint256"
        },
        {
          "internalType": "uint256[2]",
          "name": "a",
          "type": "uint256[2]"
        },
        {
          "internalType": "uint256[2][2]",
          "name": "b",
          "type": "uint256[2][2]"
        },
        {
          "internalType": "uint256[2]",
          "name": "c",
          "type": "uint256[2]"
        },
        {
          "internalType": "uint256[2]",
          "name": "input",
          "type": "uint256[2]"
        }
      ],
      "name": "addSolution",
      "outputs": [],
      "payable": false,
      "stateMutability": "nonpayable",
      "type": "function"
    },
    {
      "constant": false,
      "inputs": [
        {
          "internalType": "address",
          "name": "to",
          "type": "address"
        },
        {
          "internalType": "uint256",
          "name": "tokenId",
          "type": "uint256"
        }
      ],
      "name": "mint",
      "outputs": [
        {
          "internalType": "bool",
          "name": "",
          "type": "bool"
        }
      ],
      "payable": false,
      "stateMutability": "nonpayable",
      "type": "function"
    },
    {
      "constant": false,
      "inputs": [
        {
          "internalType": "address",
          "name": "to",
          "type": "address"
        },
        {
          "internalType": "uint256",
          "name": "tokenId",
          "type": "uint256"
        },
        {
          "internalType": "uint256[2]",
          "name": "a",
          "type": "uint256[2]"
        },
        {
          "internalType": "uint256[2][2]",
          "name": "b",
          "type": "uint256[2][2]"
        },
        {
          "internalType": "uint256[2]",
          "name": "c",
          "type": "uint256[2]"
        },
        {
          "internalType": "uint256[2]",
          "name": "input",
          "type": "uint256[2]"
        }
      ],
      "name": "mint",
      "outputs": [
        {
          "internalType": "bool",
          "name": "",
          "type": "bool"
        }
      ],
      "payable": false,
      "stateMutability": "nonpayable",
      "type": "function"
    }
  ],
  "bytecode": "0x60806040526040518060400160405280600f81526020017f4e4654205265616c2045737461746500000000000000000000000000000000008152506013908051906020019062000051929190620004d9565b506040518060400160405280600381526020017f4e52450000000000000000000000000000000000000000000000000000000000815250601490805190602001906200009f929190620004d9565b506040518060600160405280603f815260200162004d75603f913960159080519060200190620000d1929190620004d9565b5060138054600181600116156101000203166002900480601f0160208091040260200160405190810160405280929190818152602001828054600181600116156101000203166002900480156200016c5780601f1062000140576101008083540402835291602001916200016c565b820191906000526020600020905b8154815290600101906020018083116200014e57829003601f168201915b505050505060148054600181600116156101000203166002900480601f0160208091040260200160405190810160405280929190818152602001828054600181600116156101000203166002900480156200020b5780601f10620001df576101008083540402835291602001916200020b565b820191906000526020600020905b815481529060010190602001808311620001ed57829003601f168201915b505050505060158054600181600116156101000203166002900480601f016020809104026020016040519081016040528092919081815260200182805460018160011615610100020316600290048015620002aa5780601f106200027e57610100808354040283529160200191620002aa565b820191906000526020600020905b8154815290600101906020018083116200028c57829003601f168201915b5050505050336000806101000a81548173ffffffffffffffffffffffffffffffffffffffff021916908373ffffffffffffffffffffffffffffffffffffffff1602179055506000809054906101000a900473ffffffffffffffffffffffffffffffffffffffff1673ffffffffffffffffffffffffffffffffffffffff16600073ffffffffffffffffffffffffffffffffffffffff167f0d18b5fd22306e373229b9439188228edca81207d1667f604daf6cef8aa3ee6760405160405180910390a360008060146101000a81548160ff0219169083151502179055506200039d6301ffc9a760e01b6200043960201b60201c565b620003b56380ac58cd60e01b6200043960201b60201c565b620003cd63780e9d6360e01b6200043960201b60201c565b82600f9080519060200190620003e5929190620004d9565b508160109080519060200190620003fe929190620004d9565b50806011908051906020019062000417929190620004d9565b5062000430635b5e139f60e01b6200043960201b60201c565b50505062000588565b63ffffffff60e01b817bffffffffffffffffffffffffffffffffffffffffffffffffffffffff191614156200046d57600080fd5b6001806000837bffffffffffffffffffffffffffffffffffffffffffffffffffffffff19167bffffffffffffffffffffffffffffffffffffffffffffffffffffffff1916815260200190815260200160002060006101000a81548160ff02191690831515021790555050565b828054600181600116156101000203166002900490600052602060002090601f016020900481019282601f106200051c57805160ff19168380011785556200054d565b828001600101855582156200054d579182015b828111156200054c5782518255916020019190600101906200052f565b5b5090506200055c919062000560565b5090565b6200058591905b808211156200058157600081600090555060010162000567565b5090565b90565b6147dd80620005986000396000f3fe608060405234801561001057600080fd5b506004361061018e5760003560e01c8063621e9ec0116100de578063b387ef9211610097578063d547cfb711610071578063d547cfb714610e1f578063e985e9c514610ea2578063f2fde38b14610f1e578063fec6cfb914610f625761018e565b8063b387ef9214610c29578063b88d4fde14610c73578063c87b56dd14610d785761018e565b8063621e9ec0146108e75780636352211e14610a6057806370a0823114610ace57806395d89b4114610b26578063a22cb46514610ba9578063ac9f022214610bf95761018e565b806327dc297e1161014b5780633eec14da116101255780633eec14da1461064657806340c10f19146107d157806342842e0e146108375780634f6ccce7146108a55761018e565b806327dc297e146103c35780632f745c591461048857806338bbfa50146104ea5761018e565b806301ffc9a71461019357806306fdde03146101f8578063081812fc1461027b578063095ea7b3146102e957806318160ddd1461033757806323b872dd14610355575b600080fd5b6101de600480360360208110156101a957600080fd5b8101908080357bffffffffffffffffffffffffffffffffffffffffffffffffffffffff19169060200190929190505050611105565b604051808215151515815260200191505060405180910390f35b61020061116d565b6040518080602001828103825283818151815260200191508051906020019080838360005b83811015610240578082015181840152602081019050610225565b50505050905090810190601f16801561026d5780820380516001836020036101000a031916815260200191505b509250505060405180910390f35b6102a76004803603602081101561029157600080fd5b810190808035906020019092919050505061120f565b604051808273ffffffffffffffffffffffffffffffffffffffff1673ffffffffffffffffffffffffffffffffffffffff16815260200191505060405180910390f35b610335600480360360408110156102ff57600080fd5b81019080803573ffffffffffffffffffffffffffffffffffffffff169060200190929190803590602001909291905050506112c7565b005b61033f6114d4565b6040518082815260200191505060405180910390f35b6103c16004803603606081101561036b57600080fd5b81019080803573ffffffffffffffffffffffffffffffffffffffff169060200190929190803573ffffffffffffffffffffffffffffffffffffffff169060200190929190803590602001909291905050506114e1565b005b610486600480360360408110156103d957600080fd5b81019080803590602001909291908035906020019064010000000081111561040057600080fd5b82018360208201111561041257600080fd5b8035906020019184600183028401116401000000008311171561043457600080fd5b91908080601f016020809104026020016040519081016040528093929190818152602001838380828437600081840152601f19601f820116905080830192505050505050509192919290505050611504565b005b6104d46004803603604081101561049e57600080fd5b81019080803573ffffffffffffffffffffffffffffffffffffffff16906020019092919080359060200190929190505050611547565b6040518082815260200191505060405180910390f35b6106446004803603606081101561050057600080fd5b81019080803590602001909291908035906020019064010000000081111561052757600080fd5b82018360208201111561053957600080fd5b8035906020019184600183028401116401000000008311171561055b57600080fd5b91908080601f016020809104026020016040519081016040528093929190818152602001838380828437600081840152601f19601f820116905080830192505050505050509192919290803590602001906401000000008111156105be57600080fd5b8201836020820111156105d057600080fd5b803590602001918460018302840111640100000000831117156105f257600080fd5b91908080601f016020809104026020016040519081016040528093929190818152602001838380828437600081840152601f19601f8201169050808301925050505050505091929192905050506115ba565b005b6107cf600480360361018081101561065d57600080fd5b81019080803573ffffffffffffffffffffffffffffffffffffffff1690602001909291908035906020019092919080604001906002806020026040519081016040528092919082600260200280828437600081840152601f19601f82011690508083019250505050505091929192908060800190600280602002604051908101604052809291906000905b8282101561073c578382604002016002806020026040519081016040528092919082600260200280828437600081840152601f19601f820116905080830192505050505050815260200190600101906106e8565b50505050919291929080604001906002806020026040519081016040528092919082600260200280828437600081840152601f19601f820116905080830192505050505050919291929080604001906002806020026040519081016040528092919082600260200280828437600081840152601f19601f82011690508083019250505050505091929192905050506115bf565b005b61081d600480360360408110156107e757600080fd5b81019080803573ffffffffffffffffffffffffffffffffffffffff1690602001909291908035906020019092919050505061188b565b604051808215151515815260200191505060405180910390f35b6108a36004803603606081101561084d57600080fd5b81019080803573ffffffffffffffffffffffffffffffffffffffff169060200190929190803573ffffffffffffffffffffffffffffffffffffffff1690602001909291908035906020019092919050505061196c565b005b6108d1600480360360208110156108bb57600080fd5b810190808035906020019092919050505061198c565b6040518082815260200191505060405180910390f35b610a4660048036036101408110156108fe57600080fd5b8101908080604001906002806020026040519081016040528092919082600260200280828437600081840152601f19601f82011690508083019250505050505091929192908060800190600280602002604051908101604052809291906000905b828210156109b3578382604002016002806020026040519081016040528092919082600260200280828437600081840152601f19601f8201169050808301925050505050508152602001906001019061095f565b50505050919291929080604001906002806020026040519081016040528092919082600260200280828437600081840152601f19601f820116905080830192505050505050919291929080604001906002806020026040519081016040528092919082600260200280828437600081840152601f19601f82011690508083019250505050505091929192905050506119c0565b604051808215151515815260200191505060405180910390f35b610a8c60048036036020811015610a7657600080fd5b8101908080359060200190929190505050611c07565b604051808273ffffffffffffffffffffffffffffffffffffffff1673ffffffffffffffffffffffffffffffffffffffff16815260200191505060405180910390f35b610b1060048036036020811015610ae457600080fd5b81019080803573ffffffffffffffffffffffffffffffffffffffff169060200190929190505050611d19565b6040518082815260200191505060405180910390f35b610b2e611dee565b6040518080602001828103825283818151815260200191508051906020019080838360005b83811015610b6e578082015181840152602081019050610b53565b50505050905090810190601f168015610b9b5780820380516001836020036101000a031916815260200191505b509250505060405180910390f35b610bf760048036036040811015610bbf57600080fd5b81019080803573ffffffffffffffffffffffffffffffffffffffff169060200190929190803515159060200190929190505050611e90565b005b610c2760048036036020811015610c0f57600080fd5b81019080803515159060200190929190505050611fca565b005b610c316121b6565b604051808273ffffffffffffffffffffffffffffffffffffffff1673ffffffffffffffffffffffffffffffffffffffff16815260200191505060405180910390f35b610d7660048036036080811015610c8957600080fd5b81019080803573ffffffffffffffffffffffffffffffffffffffff169060200190929190803573ffffffffffffffffffffffffffffffffffffffff1690602001909291908035906020019092919080359060200190640100000000811115610cf057600080fd5b820183602082011115610d0257600080fd5b80359060200191846001830284011164010000000083111715610d2457600080fd5b91908080601f016020809104026020016040519081016040528093929190818152602001838380828437600081840152601f19601f8201169050808301925050505050505091929192905050506121df565b005b610da460048036036020811015610d8e57600080fd5b8101908080359060200190929190505050612205565b6040518080602001828103825283818151815260200191508051906020019080838360005b83811015610de4578082015181840152602081019050610dc9565b50505050905090810190601f168015610e115780820380516001836020036101000a031916815260200191505b509250505060405180910390f35b610e276122cc565b6040518080602001828103825283818151815260200191508051906020019080838360005b83811015610e67578082015181840152602081019050610e4c565b50505050905090810190601f168015610e945780820380516001836020036101000a031916815260200191505b509250505060405180910390f35b610f0460048036036040811015610eb857600080fd5b81019080803573ffffffffffffffffffffffffffffffffffffffff169060200190929190803573ffffffffffffffffffffffffffffffffffffffff16906020019092919050505061236e565b604051808215151515815260200191505060405180910390f35b610f6060048036036020811015610f3457600080fd5b81019080803573ffffffffffffffffffffffffffffffffffffffff169060200190929190505050612402565b005b6110eb6004803603610180811015610f7957600080fd5b81019080803573ffffffffffffffffffffffffffffffffffffffff1690602001909291908035906020019092919080604001906002806020026040519081016040528092919082600260200280828437600081840152601f19601f82011690508083019250505050505091929192908060800190600280602002604051908101604052809291906000905b82821015611058578382604002016002806020026040519081016040528092919082600260200280828437600081840152601f19601f82011690508083019250505050505081526020019060010190611004565b50505050919291929080604001906002806020026040519081016040528092919082600260200280828437600081840152601f19601f820116905080830192505050505050919291929080604001906002806020026040519081016040528092919082600260200280828437600081840152601f19601f820116905080830192505050505050919291929050505061260e565b604051808215151515815260200191505060405180910390f35b600060016000837bffffffffffffffffffffffffffffffffffffffffffffffffffffffff19167bffffffffffffffffffffffffffffffffffffffffffffffffffffffff1916815260200190815260200160002060009054906101000a900460ff169050919050565b6060600f8054600181600116156101000203166002900480601f0160208091040260200160405190810160405280929190818152602001828054600181600116156101000203166002900480156112055780601f106111da57610100808354040283529160200191611205565b820191906000526020600020905b8154815290600101906020018083116111e857829003601f168201915b5050505050905090565b600061121a8261273e565b61128c576040517f08c379a00000000000000000000000000000000000000000000000000000000081526004018080602001828103825260148152602001807f546f6b656e20646f6573206e6f7420657869737400000000000000000000000081525060200191505060405180910390fd5b6003600083815260200190815260200160002060009054906101000a900473ffffffffffffffffffffffffffffffffffffffff169050919050565b8173ffffffffffffffffffffffffffffffffffffffff166112e782611c07565b73ffffffffffffffffffffffffffffffffffffffff161415611354576040517f08c379a00000000000000000000000000000000000000000000000000000000081526004018080602001828103825260258152602001806146936025913960400191505060405180910390fd5b6113916002600083815260200190815260200160002060009054906101000a900473ffffffffffffffffffffffffffffffffffffffff163361236e565b806113ce575061139f6121b6565b73ffffffffffffffffffffffffffffffffffffffff163373ffffffffffffffffffffffffffffffffffffffff16145b611423576040517f08c379a00000000000000000000000000000000000000000000000000000000081526004018080602001828103825260298152602001806146b86029913960400191505060405180910390fd5b816003600083815260200190815260200160002060006101000a81548173ffffffffffffffffffffffffffffffffffffffff021916908373ffffffffffffffffffffffffffffffffffffffff160217905550808273ffffffffffffffffffffffffffffffffffffffff163373ffffffffffffffffffffffffffffffffffffffff167f8c5be1e5ebec7d5bd14f71427d1e84f3dd0314c0f7b2291e5b200ac8c7c3b92560405160405180910390a45050565b6000600880549050905090565b6114eb33826127b0565b6114f457600080fd5b6114ff838383612845565b505050565b611543828260006040519080825280601f01601f19166020018201604052801561153d5781602001600182028038833980820191505090505b506115ba565b5050565b600061155283611d19565b821061155d57600080fd5b600660008473ffffffffffffffffffffffffffffffffffffffff1673ffffffffffffffffffffffffffffffffffffffff16815260200190815260200160002082815481106115a757fe5b9060005260206000200154905092915050565b505050565b6000848484846040516020018085600260200280838360005b838110156115f35780820151818401526020810190506115d8565b505050509050018460026000925b818410156116475782846020020151600260200280838360005b8381101561163657808201518184015260208101905061161b565b505050509050019260010192611601565b9250505083600260200280838360005b83811015611672578082015181840152602081019050611657565b5050505090500182600260200280838360005b838110156116a0578082015181840152602081019050611685565b505050509050019450505050506040516020818303038152906040528051906020012090506017600082815260200190815260200160002060009054906101000a900460ff1615611759576040517f08c379a00000000000000000000000000000000000000000000000000000000081526004018080602001828103825260178152602001807f536f6c7574696f6e20616c72656164792065786973747300000000000000000081525060200191505060405180910390fd5b60016017600083815260200190815260200160002060006101000a81548160ff02191690831515021790555060405180604001604052808873ffffffffffffffffffffffffffffffffffffffff168152602001878152506016600088815260200190815260200160002060008201518160000160006101000a81548173ffffffffffffffffffffffffffffffffffffffff021916908373ffffffffffffffffffffffffffffffffffffffff160217905550602082015181600101559050507f078793128cefb19aac38a33f9e5df39f67716907f6d747e8065545699e0b2b8d8688604051808381526020018273ffffffffffffffffffffffffffffffffffffffff1673ffffffffffffffffffffffffffffffffffffffff1681526020019250505060405180910390a150505050505050565b60008060009054906101000a900473ffffffffffffffffffffffffffffffffffffffff1673ffffffffffffffffffffffffffffffffffffffff163373ffffffffffffffffffffffffffffffffffffffff161461194f576040517f08c379a00000000000000000000000000000000000000000000000000000000081526004018080602001828103825260158152602001807f596f7520617265206e6f7420746865206f776e6572000000000000000000000081525060200191505060405180910390fd5b6119598383612869565b6119628261288a565b6001905092915050565b611987838383604051806020016040528060008152506121df565b505050565b60006119966114d4565b82106119a157600080fd5b600882815481106119ae57fe5b90600052602060002001549050919050565b60006119ca614407565b6040518060400160405280876000600281106119e257fe5b60200201518152602001876001600281106119f957fe5b602002015181525081600001819052506040518060400160405280604051806040016040528088600060028110611a2c57fe5b6020020151600060028110611a3d57fe5b6020020151815260200188600060028110611a5457fe5b6020020151600160028110611a6557fe5b60200201518152508152602001604051806040016040528088600160028110611a8a57fe5b6020020151600060028110611a9b57fe5b6020020151815260200188600160028110611ab257fe5b6020020151600160028110611ac357fe5b60200201518152508152508160200181905250604051806040016040528085600060028110611aee57fe5b6020020151815260200185600160028110611b0557fe5b6020020151815250816040018190525060606002604051908082528060200260200182016040528015611b475781602001602082028038833980820191505090505b50905060008090505b6002811015611b8f57848160028110611b6557fe5b6020020151828281518110611b7657fe5b6020026020010181815250508080600101915050611b50565b506000611b9c82846129e1565b1415611bf8577f3f3cfdb26fb5f9f1786ab4f1a1f9cd4c0b5e726cbdfc26e495261731aad44e396040518080602001828103825260228152602001806146e16022913960400191505060405180910390a1600192505050611bff565b6000925050505b949350505050565b60008073ffffffffffffffffffffffffffffffffffffffff166002600084815260200190815260200160002060009054906101000a900473ffffffffffffffffffffffffffffffffffffffff1673ffffffffffffffffffffffffffffffffffffffff161415611cde576040517f08c379a000000000000000000000000000000000000000000000000000000000815260040180806020018281038252601f8152602001807f5a65726f20616464726573736573206f776e206e6f7468696e6720686572650081525060200191505060405180910390fd5b6002600083815260200190815260200160002060009054906101000a900473ffffffffffffffffffffffffffffffffffffffff169050919050565b60008073ffffffffffffffffffffffffffffffffffffffff168273ffffffffffffffffffffffffffffffffffffffff161415611da0576040517f08c379a000000000000000000000000000000000000000000000000000000000815260040180806020018281038252602b815260200180614635602b913960400191505060405180910390fd5b611de7600460008473ffffffffffffffffffffffffffffffffffffffff1673ffffffffffffffffffffffffffffffffffffffff168152602001908152602001600020612b0e565b9050919050565b606060108054600181600116156101000203166002900480601f016020809104026020016040519081016040528092919081815260200182805460018160011615610100020316600290048015611e865780601f10611e5b57610100808354040283529160200191611e86565b820191906000526020600020905b815481529060010190602001808311611e6957829003601f168201915b5050505050905090565b3373ffffffffffffffffffffffffffffffffffffffff168273ffffffffffffffffffffffffffffffffffffffff161415611ec957600080fd5b80600560003373ffffffffffffffffffffffffffffffffffffffff1673ffffffffffffffffffffffffffffffffffffffff16815260200190815260200160002060008473ffffffffffffffffffffffffffffffffffffffff1673ffffffffffffffffffffffffffffffffffffffff16815260200190815260200160002060006101000a81548160ff0219169083151502179055508173ffffffffffffffffffffffffffffffffffffffff163373ffffffffffffffffffffffffffffffffffffffff167f17307eab39ab6107e8899845ad3d59bd9653f200f220920489ca2b5937696c3183604051808215151515815260200191505060405180910390a35050565b6000809054906101000a900473ffffffffffffffffffffffffffffffffffffffff1673ffffffffffffffffffffffffffffffffffffffff163373ffffffffffffffffffffffffffffffffffffffff161461208c576040517f08c379a00000000000000000000000000000000000000000000000000000000081526004018080602001828103825260158152602001807f596f7520617265206e6f7420746865206f776e6572000000000000000000000081525060200191505060405180910390fd5b600060149054906101000a900460ff16151581151514156120f8576040517f08c379a00000000000000000000000000000000000000000000000000000000081526004018080602001828103825260218152602001806147656021913960400191505060405180910390fd5b80600060146101000a81548160ff021916908315150217905550600060149054906101000a900460ff161561216f573373ffffffffffffffffffffffffffffffffffffffff167f62e78cea01bee320cd4e420270b5ea74000d11b0c9f74754ebdbfc544b05a25860405160405180910390a26121b3565b3373ffffffffffffffffffffffffffffffffffffffff167f5db9ee0a495bf2e6ff9c91a7834c1ba4fdd244a5e8aa4e537bd38aeae4b073aa60405160405180910390a25b50565b60008060009054906101000a900473ffffffffffffffffffffffffffffffffffffffff16905090565b6121ea8484846114e1565b6121f684848484612b1c565b6121ff57600080fd5b50505050565b60606122108261273e565b61221957600080fd5b601260008381526020019081526020016000208054600181600116156101000203166002900480601f0160208091040260200160405190810160405280929190818152602001828054600181600116156101000203166002900480156122c05780601f10612295576101008083540402835291602001916122c0565b820191906000526020600020905b8154815290600101906020018083116122a357829003601f168201915b50505050509050919050565b606060118054600181600116156101000203166002900480601f0160208091040260200160405190810160405280929190818152602001828054600181600116156101000203166002900480156123645780601f1061233957610100808354040283529160200191612364565b820191906000526020600020905b81548152906001019060200180831161234757829003601f168201915b5050505050905090565b6000600560008473ffffffffffffffffffffffffffffffffffffffff1673ffffffffffffffffffffffffffffffffffffffff16815260200190815260200160002060008373ffffffffffffffffffffffffffffffffffffffff1673ffffffffffffffffffffffffffffffffffffffff16815260200190815260200160002060009054906101000a900460ff16905092915050565b6000809054906101000a900473ffffffffffffffffffffffffffffffffffffffff1673ffffffffffffffffffffffffffffffffffffffff163373ffffffffffffffffffffffffffffffffffffffff16146124c4576040517f08c379a00000000000000000000000000000000000000000000000000000000081526004018080602001828103825260158152602001807f596f7520617265206e6f7420746865206f776e6572000000000000000000000081525060200191505060405180910390fd5b600073ffffffffffffffffffffffffffffffffffffffff168173ffffffffffffffffffffffffffffffffffffffff16141561254a576040517f08c379a00000000000000000000000000000000000000000000000000000000081526004018080602001828103825260248152602001806147036024913960400191505060405180910390fd5b60008060009054906101000a900473ffffffffffffffffffffffffffffffffffffffff169050816000806101000a81548173ffffffffffffffffffffffffffffffffffffffff021916908373ffffffffffffffffffffffffffffffffffffffff1602179055508173ffffffffffffffffffffffffffffffffffffffff168173ffffffffffffffffffffffffffffffffffffffff167f0d18b5fd22306e373229b9439188228edca81207d1667f604daf6cef8aa3ee6760405160405180910390a35050565b6000856016600088815260200190815260200160002060010154141561269c576040517f08c379a00000000000000000000000000000000000000000000000000000000081526004018080602001828103825260168152602001807f736f6c7574696f6e20616c72656164792065786973740000000000000000000081525060200191505060405180910390fd5b6126a8858585856119c0565b61271a576040517f08c379a00000000000000000000000000000000000000000000000000000000081526004018080602001828103825260128152602001807f70726f6f66206973206e6f742076616c6964000000000000000000000000000081525060200191505060405180910390fd5b6127288787878787876115bf565b612732878761188b565b90509695505050505050565b6000806002600084815260200190815260200160002060009054906101000a900473ffffffffffffffffffffffffffffffffffffffff169050600073ffffffffffffffffffffffffffffffffffffffff168173ffffffffffffffffffffffffffffffffffffffff161415915050919050565b6000806127bc83611c07565b90508073ffffffffffffffffffffffffffffffffffffffff168473ffffffffffffffffffffffffffffffffffffffff16148061282b57508373ffffffffffffffffffffffffffffffffffffffff166128138461120f565b73ffffffffffffffffffffffffffffffffffffffff16145b8061283c575061283b818561236e565b5b91505092915050565b612850838383612d05565b61285a8382612f60565b61286482826130fe565b505050565b61287382826131c5565b61287d82826130fe565b61288681613355565b5050565b6128938161273e565b612905576040517f08c379a00000000000000000000000000000000000000000000000000000000081526004018080602001828103825260158152602001807f546f6b656e20646f6573206e6f742065786973742e000000000000000000000081525060200191505060405180910390fd5b60606129b360118054600181600116156101000203166002900480601f0160208091040260200160405190810160405280929190818152602001828054600181600116156101000203166002900480156129a05780601f10612975576101008083540402835291602001916129a0565b820191906000526020600020905b81548152906001019060200180831161298357829003601f168201915b50505050506129ae846133a1565b6134ce565b9050806012600084815260200190815260200160002090805190602001906129dc92919061443a565b505050565b60006129eb6144ba565b6129f3613512565b9050806080015151600185510114612a0a57600080fd5b612a12614501565b6040518060400160405280600081526020016000815250905060008090505b8551811015612a8957612a7a82612a7585608001516001850181518110612a5457fe5b6020026020010151898581518110612a6857fe5b602002602001015161395f565b6139f3565b91508080600101915050612a31565b50612aac818360800151600081518110612a9f57fe5b60200260200101516139f3565b9050612af284600001518560200151612ac484613aa6565b8560400151612ad68960400151613aa6565b8760600151612ae88960000151613aa6565b8960200151613b40565b612b0157600192505050612b08565b6000925050505b92915050565b600081600001549050919050565b6000612b3d8473ffffffffffffffffffffffffffffffffffffffff16613ca4565b612b4a5760019050612cfd565b60008473ffffffffffffffffffffffffffffffffffffffff1663150b7a02338887876040518563ffffffff1660e01b8152600401808573ffffffffffffffffffffffffffffffffffffffff1673ffffffffffffffffffffffffffffffffffffffff1681526020018473ffffffffffffffffffffffffffffffffffffffff1673ffffffffffffffffffffffffffffffffffffffff16815260200183815260200180602001828103825283818151815260200191508051906020019080838360005b83811015612c25578082015181840152602081019050612c0a565b50505050905090810190601f168015612c525780820380516001836020036101000a031916815260200191505b5095505050505050602060405180830381600087803b158015612c7457600080fd5b505af1158015612c88573d6000803e3d6000fd5b505050506040513d6020811015612c9e57600080fd5b8101908080519060200190929190505050905063150b7a0260e01b7bffffffffffffffffffffffffffffffffffffffffffffffffffffffff1916817bffffffffffffffffffffffffffffffffffffffffffffffffffffffff1916149150505b949350505050565b8273ffffffffffffffffffffffffffffffffffffffff16612d2582611c07565b73ffffffffffffffffffffffffffffffffffffffff1614612d91576040517f08c379a00000000000000000000000000000000000000000000000000000000081526004018080602001828103825260238152602001806147866023913960400191505060405180910390fd5b600073ffffffffffffffffffffffffffffffffffffffff168273ffffffffffffffffffffffffffffffffffffffff161415612e17576040517f08c379a000000000000000000000000000000000000000000000000000000000815260040180806020018281038252603e815260200180614727603e913960400191505060405180910390fd5b612e2081613cef565b612e67600460008573ffffffffffffffffffffffffffffffffffffffff1673ffffffffffffffffffffffffffffffffffffffff168152602001908152602001600020613dad565b612eae600460008473ffffffffffffffffffffffffffffffffffffffff1673ffffffffffffffffffffffffffffffffffffffff168152602001908152602001600020613dd0565b816002600083815260200190815260200160002060006101000a81548173ffffffffffffffffffffffffffffffffffffffff021916908373ffffffffffffffffffffffffffffffffffffffff160217905550808273ffffffffffffffffffffffffffffffffffffffff168473ffffffffffffffffffffffffffffffffffffffff167fddf252ad1be2c89b69c2b068fc378daa952ba7f163c4a11628f55a4df523b3ef60405160405180910390a4505050565b6000612fb86001600660008673ffffffffffffffffffffffffffffffffffffffff1673ffffffffffffffffffffffffffffffffffffffff16815260200190815260200160002080549050613de690919063ffffffff16565b90506000600760008481526020019081526020016000205490508181146130a5576000600660008673ffffffffffffffffffffffffffffffffffffffff1673ffffffffffffffffffffffffffffffffffffffff168152602001908152602001600020838154811061302557fe5b9060005260206000200154905080600660008773ffffffffffffffffffffffffffffffffffffffff1673ffffffffffffffffffffffffffffffffffffffff168152602001908152602001600020838154811061307d57fe5b9060005260206000200181905550816007600083815260200190815260200160002081905550505b600660008573ffffffffffffffffffffffffffffffffffffffff1673ffffffffffffffffffffffffffffffffffffffff1681526020019081526020016000208054809190600190036130f7919061451b565b5050505050565b600660008373ffffffffffffffffffffffffffffffffffffffff1673ffffffffffffffffffffffffffffffffffffffff168152602001908152602001600020805490506007600083815260200190815260200160002081905550600660008373ffffffffffffffffffffffffffffffffffffffff1673ffffffffffffffffffffffffffffffffffffffff1681526020019081526020016000208190806001815401808255809150509060018203906000526020600020016000909192909190915055505050565b6131ce8161273e565b15806132075750600073ffffffffffffffffffffffffffffffffffffffff168273ffffffffffffffffffffffffffffffffffffffff1614155b61325c576040517f08c379a00000000000000000000000000000000000000000000000000000000081526004018080602001828103825260338152602001806146606033913960400191505060405180910390fd5b816002600083815260200190815260200160002060006101000a81548173ffffffffffffffffffffffffffffffffffffffff021916908373ffffffffffffffffffffffffffffffffffffffff1602179055506132f5600460008473ffffffffffffffffffffffffffffffffffffffff1673ffffffffffffffffffffffffffffffffffffffff168152602001908152602001600020613dd0565b808273ffffffffffffffffffffffffffffffffffffffff16600073ffffffffffffffffffffffffffffffffffffffff167fddf252ad1be2c89b69c2b068fc378daa952ba7f163c4a11628f55a4df523b3ef60405160405180910390a45050565b6008805490506009600083815260200190815260200160002081905550600881908060018154018082558091505090600182039060005260206000200160009091929091909150555050565b606060008214156133e9576040518060400160405280600181526020017f300000000000000000000000000000000000000000000000000000000000000081525090506134c9565b600082905060005b60008214613413578080600101915050600a828161340b57fe5b0491506133f1565b6060816040519080825280601f01601f1916602001820160405280156134485781602001600182028038833980820191505090505b50905060006001830390505b600086146134c157600a868161346657fe5b0660300160f81b8282806001900393508151811061348057fe5b60200101907effffffffffffffffffffffffffffffffffffffffffffffffffffffffffffff1916908160001a905350600a86816134b957fe5b049550613454565b819450505050505b919050565b606061350a8383604051806020016040528060008152506040518060200160405280600081525060405180602001604052806000815250613e30565b905092915050565b61351a6144ba565b60405180604001604052807f24aa0810422d5724ec9a3b2e156e0475a7d4d968e9bf15326240b170727bc43b81526020017f2f728a8aeb3678b93432349e5dfa3a5f7ee18ecb0b1479b8cd8fe43e241f7a068152508160000181905250604051806040016040528060405180604001604052807f022b59b31b54993b4189a4c42351e0fd199f3492744f3ecf7b7350ee39185f6d81526020017f1f34ab7a13083e070502d0da595b0797b5e4f18e788ea64c12c79309ef4b6ae2815250815260200160405180604001604052807f2e35988673b9400f16fa6de4eef1c7abd4503d573a47cd618bb9a468ba65820581526020017f23ab1200fd63d97cc3b4c111e89faf0ab9c74530f63fdbf051ec81439d8491ad8152508152508160200181905250604051806040016040528060405180604001604052807f2b403e701d6d429fe554bc83638c436146372fe4748b7bf408b05c579f1c2e5c81526020017f28cc59ddfa04dc9ff6d7268edf6db03500b1ff4e1c68de591acf2d2eb366eefd815250815260200160405180604001604052807f1ce7ea4b7b3fa99f6536c97b003bb9b4c817644aacfa0ad9dbc293303f4157f281526020017f23cc33570ad5eaf13bb6feb5b46bcb1f8d14f314380a512e0e792c7b1f9e55e08152508152508160400181905250604051806040016040528060405180604001604052807f2d0270f0d136c5d98c0db8bd25b67ec7d1496fdb07e54ef53b86b9b5ad0d29f281526020017f2c34b57d43163ae92663a6ea95705b9709a693c821cdad94fa9e9c86e128f563815250815260200160405180604001604052807f165e6a0ffdb2c73caeb0d7fb50a253707f77f5b3a391dd0e01a0e2d73a448d2981526020017f1dd305c86093784bc49658062e885f19ef0e00760cf7de253afeeb512337b9d38152508152508160600181905250600360405190808252806020026020018201604052801561380157816020015b6137ee614547565b8152602001906001900390816137e65790505b50816080018190525060405180604001604052807f27bd8b6a24dea1eba32ca042db813f17e82d3bc830e8c0826dc014a5e62191b781526020017e98c7d4d3f244e8c8b3464a2936781edc3bbef88320d8850794e9168bb4ddb7815250816080015160008151811061386f57fe5b602002602001018190525060405180604001604052807f150741360bc2337513dfe1fe1fd4c8dccac6f947c817a0e761af006b582dafe081526020017f24e025d33da3448557498cf82a74baa392e109bb615d0efa31f1a71d8a1271fa81525081608001516001815181106138e057fe5b602002602001018190525060405180604001604052807f090fe4057815e95e2e44d2f8778dc96afcf30e0423132ae3f5d188df39e3615481526020017f0530ecf7f92301eeeb09dc0b468b6b14d87c74e575a48b8a19acda0c5014116a815250816080015160028151811061395157fe5b602002602001018190525090565b613967614501565b61396f614561565b83600001518160006003811061398157fe5b60200201818152505083602001518160016003811061399c57fe5b60200201818152505082816002600381106139b357fe5b6020020181815250506000606083608084600060076107d05a03f1905080600081146139de576139e0565bfe5b50806139eb57600080fd5b505092915050565b6139fb614501565b613a03614583565b836000015181600060048110613a1557fe5b602002018181525050836020015181600160048110613a3057fe5b602002018181525050826000015181600260048110613a4b57fe5b602002018181525050826020015181600360048110613a6657fe5b602002018181525050600060608360c084600060066107d05a03f190508060008114613a9157613a93565bfe5b5080613a9e57600080fd5b505092915050565b613aae614501565b60007f30644e72e131a029b85045b68181585d97816a916871ca8d3c208c16d87cfd47905060008360000151148015613aeb575060008360200151145b15613b0f576040518060400160405280600081526020016000815250915050613b3b565b60405180604001604052808460000151815260200182856020015181613b3157fe5b0683038152509150505b919050565b600060606004604051908082528060200260200182016040528015613b7f57816020015b613b6c614547565b815260200190600190039081613b645790505b50905060606004604051908082528060200260200182016040528015613bbf57816020015b613bac6145a5565b815260200190600190039081613ba45790505b5090508a82600081518110613bd057fe5b60200260200101819052508882600181518110613be957fe5b60200260200101819052508682600281518110613c0257fe5b60200260200101819052508482600381518110613c1b57fe5b60200260200101819052508981600081518110613c3457fe5b60200260200101819052508781600181518110613c4d57fe5b60200260200101819052508581600281518110613c6657fe5b60200260200101819052508381600381518110613c7f57fe5b6020026020010181905250613c9482826140f2565b9250505098975050505050505050565b60008060007fc5d2460186f7233c927e7db2dcc703c0e500b653ca82273b7bfad8045d85a47060001b9050833f9150808214158015613ce657506000801b8214155b92505050919050565b600073ffffffffffffffffffffffffffffffffffffffff166003600083815260200190815260200160002060009054906101000a900473ffffffffffffffffffffffffffffffffffffffff1673ffffffffffffffffffffffffffffffffffffffff1614613daa5760006003600083815260200190815260200160002060006101000a81548173ffffffffffffffffffffffffffffffffffffffff021916908373ffffffffffffffffffffffffffffffffffffffff1602179055505b50565b613dc560018260000154613de690919063ffffffff16565b816000018190555050565b6001816000016000828254019250508190555050565b6000613e2883836040518060400160405280601e81526020017f536166654d6174683a207375627472616374696f6e206f766572666c6f770000815250614347565b905092915050565b6060808690506060869050606086905060608690506060869050606081518351855187518951010101016040519080825280601f01601f191660200182016040528015613e8c5781602001600182028038833980820191505090505b509050606081905060008090506000809050600090505b8851811015613f1157888181518110613eb857fe5b602001015160f81c60f81b838380600101945081518110613ed557fe5b60200101907effffffffffffffffffffffffffffffffffffffffffffffffffffffffffffff1916908160001a9053508080600101915050613ea3565b600090505b8751811015613f8457878181518110613f2b57fe5b602001015160f81c60f81b838380600101945081518110613f4857fe5b60200101907effffffffffffffffffffffffffffffffffffffffffffffffffffffffffffff1916908160001a9053508080600101915050613f16565b600090505b8651811015613ff757868181518110613f9e57fe5b602001015160f81c60f81b838380600101945081518110613fbb57fe5b60200101907effffffffffffffffffffffffffffffffffffffffffffffffffffffffffffff1916908160001a9053508080600101915050613f89565b600090505b855181101561406a5785818151811061401157fe5b602001015160f81c60f81b83838060010194508151811061402e57fe5b60200101907effffffffffffffffffffffffffffffffffffffffffffffffffffffffffffff1916908160001a9053508080600101915050613ffc565b600090505b84518110156140dd5784818151811061408457fe5b602001015160f81c60f81b8383806001019450815181106140a157fe5b60200101907effffffffffffffffffffffffffffffffffffffffffffffffffffffffffffff1916908160001a905350808060010191505061406f565b82995050505050505050505095945050505050565b6000815183511461410257600080fd5b60008351905060006006820290506060816040519080825280602002602001820160405280156141415781602001602082028038833980820191505090505b50905060008090505b838110156142e75786818151811061415e57fe5b60200260200101516000015182600060068402018151811061417c57fe5b60200260200101818152505086818151811061419457fe5b6020026020010151602001518260016006840201815181106141b257fe5b6020026020010181815250508581815181106141ca57fe5b6020026020010151600001516000600281106141e257fe5b60200201518260026006840201815181106141f957fe5b60200260200101818152505085818151811061421157fe5b60200260200101516000015160016002811061422957fe5b602002015182600360068402018151811061424057fe5b60200260200101818152505085818151811061425857fe5b60200260200101516020015160006002811061427057fe5b602002015182600460068402018151811061428757fe5b60200260200101818152505085818151811061429f57fe5b6020026020010151602001516001600281106142b757fe5b60200201518260056006840201815181106142ce57fe5b602002602001018181525050808060010191505061414a565b506142f06145cb565b60006020826020860260208601600060086107d05a03f19050806000811461431757614319565bfe5b508061432457600080fd5b60008260006001811061433357fe5b602002015114159550505050505092915050565b60008383111582906143f4576040517f08c379a00000000000000000000000000000000000000000000000000000000081526004018080602001828103825283818151815260200191508051906020019080838360005b838110156143b957808201518184015260208101905061439e565b50505050905090810190601f1680156143e65780820380516001836020036101000a031916815260200191505b509250505060405180910390fd5b5060008385039050809150509392505050565b604051806060016040528061441a614547565b81526020016144276145a5565b8152602001614434614547565b81525090565b828054600181600116156101000203166002900490600052602060002090601f016020900481019282601f1061447b57805160ff19168380011785556144a9565b828001600101855582156144a9579182015b828111156144a857825182559160200191906001019061448d565b5b5090506144b691906145ed565b5090565b6040518060a001604052806144cd614547565b81526020016144da6145a5565b81526020016144e76145a5565b81526020016144f46145a5565b8152602001606081525090565b604051806040016040528060008152602001600081525090565b8154818355818111156145425781836000526020600020918201910161454191906145ed565b5b505050565b604051806040016040528060008152602001600081525090565b6040518060600160405280600390602082028038833980820191505090505090565b6040518060800160405280600490602082028038833980820191505090505090565b60405180604001604052806145b8614612565b81526020016145c5614612565b81525090565b6040518060200160405280600190602082028038833980820191505090505090565b61460f91905b8082111561460b5760008160009055506001016145f3565b5090565b90565b604051806040016040528060029060208202803883398082019150509050509056fe5a65726f2061646472657373657320646f206e6f74206861766520616e792062616c616e63652068657265476976656e20746f6b656e20496420616c726561647920657869737473206f72206164647265737320697320696e76616c69644f776e6572206f6620746f6b656e20646f6573206e6f74206e65656420617070726f76616c43616c6c6572206973206e6f7420617574686f72697a656420746f206769766520617070726f76616c5472616e73616374696f6e207375636365737366756c6c792076657269666965642e4e6577206f776e65722063616e6e6f7420626520746865205a65726f2061646472657373596f752063616e6e6f74207472616e7366657220746f207a65726f20616464726573732c20757365206275726e2066756e6374696f6e20696e7374656164436f6e747261637420697320616c726561647920696e20746869732073746174654f6e6c7920746865206f776e65722063616e207472616e73666572206120746f6b656ea265627a7a72315820977d9871128614bee72ca0b5f2af974e2570255c93d3bcf55cdc9965ea3efef064736f6c6343000510003268747470733a2f2f73332d75732d776573742d322e616d617a6f6e6177732e636f6d2f756461636974792d626c6f636b636861696e2f63617073746f6e652f",
  "source": "pragma solidity >=0.4.21 <0.6.0;\n\n// TODO define a contract call to the zokrates generated solidity contract <Verifier> or <renamedVerifier>\nimport \"./ERC721Mintable.sol\";\nimport \"./SquareVerifier.sol\";\n\n// TODO define another contract named SolnSquareVerifier that inherits from your ERC721Mintable class\ncontract SolnSquareVerifier is Verifier, ERC721Mintable{\n\n    // TODO define a solutions struct that can hold an index & an address\n    struct Solution {\n        address addr;\n        uint256 index;\n    }\n\n    // TODO define an array of the above struct (tokenId => Solution)\n    mapping(uint256 => Solution) solutions;\n\n    // TODO define a mapping to store unique solutions submitted\n    mapping(bytes32 => bool) uniqueSolutions;\n\n\n    // TODO Create an event to emit when a solution is added\n    event SolutionAdded(uint256 index, address addr);\n\n    // TODO Create a function to add the solutions to the array and emit the event\n    function addSolution(address _addr, uint256 _index, uint[2] memory a, uint[2][2] memory b, uint[2] memory c, uint[2] memory input) public{\n        bytes32 _key = keccak256(abi.encodePacked(a, b, c, input));\n        require(!uniqueSolutions[_key], \"Solution already exists\");\n        uniqueSolutions[_key] = true;\n        solutions[_index] = Solution({\n            index: _index,\n            addr: _addr\n        });\n\n        emit SolutionAdded(_index, _addr);\n    }\n\n    // TODO Create a function to mint new NFT only after the solution has been verified\n    //  - make sure the solution is unique (has not been used before)\n    //  - make sure you handle metadata as well as tokenSupply\n    function mint(address to, uint256 tokenId, uint[2] memory a, uint[2][2] memory b, uint[2] memory c, uint[2] memory input)\n    public returns(bool) {\n        require(solutions[tokenId].index != tokenId,\"solution already exist\");\n        require(verifyTx(a, b, c, input), \"proof is not valid\");\n        addSolution(to, tokenId, a, b, c, input);\n        return super.mint(to, tokenId);\n    }\n} ",
  "sourcePath": "C:\\Users\\pweim\\OneDrive\\Desktop\\UdacityCapstone\\Blockchain-Capstone\\eth-contracts\\contracts\\SolnSquareVerifier.sol",
  "compiler": {
    "name": "solc",
    "version": "0.5.16+commit.9c3226ce.Emscripten.clang"
  },
  "schemaVersion": "3.4.4",
  "updatedAt": "2022-05-04T15:45:57.779Z",
  "devdoc": {
    "methods": {
      "isApprovedForAll(address,address)": {
        "details": "Tells whether an operator is approved by a given owner",
        "params": {
          "operator": "operator address which you want to query the approval of",
          "owner": "owner address which you want to query the approval of"
        },
        "return": "bool whether the given operator is approved by the given owner"
      },
      "setApprovalForAll(address,bool)": {
        "details": "Sets or unsets the approval of a given operator An operator is allowed to transfer all tokens of the sender on their behalf",
        "params": {
          "approved": "representing the status of the approval to be set",
          "to": "operator address to set the approval"
        }
      },
      "supportsInterface(bytes4)": {
        "details": "implement supportsInterface(bytes4) using a lookup table"
      },
      "tokenByIndex(uint256)": {
        "details": "Gets the token ID at a given index of all the tokens in this contract Reverts if the index is greater or equal to the total number of tokens",
        "params": {
          "index": "uint256 representing the index to be accessed of the tokens list"
        },
        "return": "uint256 token ID at the given index of the tokens list"
      },
      "tokenOfOwnerByIndex(address,uint256)": {
        "details": "Gets the token ID at a given index of the tokens list of the requested owner",
        "params": {
          "index": "uint256 representing the index to be accessed of the requested tokens list",
          "owner": "address owning the tokens list to be accessed"
        },
        "return": "uint256 token ID at the given index of the tokens list owned by the requested address"
      },
      "totalSupply()": {
        "details": "Gets the total amount of tokens stored by the contract",
        "return": "uint256 representing the total amount of tokens"
      }
    }
  },
  "userdoc": {
    "methods": {}
  }
}